{
  "contractName": "ReactExample",
  "abi": [
    {
      "constant": true,
      "inputs": [],
      "name": "pseudoRandomResult",
      "outputs": [
        {
          "name": "",
          "type": "bool"
        }
      ],
      "payable": false,
      "stateMutability": "view",
      "type": "function"
    },
    {
      "constant": true,
      "inputs": [],
      "name": "you_awesome",
      "outputs": [
        {
          "name": "",
          "type": "string"
        }
      ],
      "payable": false,
      "stateMutability": "view",
      "type": "function"
    },
    {
      "inputs": [
        {
          "name": "",
          "type": "address"
        }
      ],
      "payable": false,
      "stateMutability": "nonpayable",
      "type": "constructor"
    },
    {
      "payable": true,
      "stateMutability": "payable",
      "type": "fallback"
    },
    {
      "anonymous": false,
      "inputs": [
        {
          "indexed": false,
          "name": "result",
          "type": "bool"
        }
      ],
      "name": "ExperimentComplete",
      "type": "event"
    },
    {
      "constant": true,
      "inputs": [],
      "name": "getSecret",
      "outputs": [
        {
          "name": "",
          "type": "string"
        }
      ],
      "payable": false,
      "stateMutability": "view",
      "type": "function"
    },
    {
      "constant": false,
      "inputs": [],
      "name": "kill",
      "outputs": [],
      "payable": false,
      "stateMutability": "nonpayable",
      "type": "function"
    },
    {
      "constant": true,
      "inputs": [],
      "name": "getState",
      "outputs": [
        {
          "name": "",
          "type": "string"
        }
      ],
      "payable": false,
      "stateMutability": "view",
      "type": "function"
    },
    {
      "constant": false,
      "inputs": [
        {
          "name": "newState",
          "type": "string"
        }
      ],
      "name": "setState",
      "outputs": [],
      "payable": true,
      "stateMutability": "payable",
      "type": "function"
    },
    {
      "constant": false,
      "inputs": [],
      "name": "setExperimentInMotion",
      "outputs": [
        {
          "name": "",
          "type": "bool"
        }
      ],
      "payable": true,
      "stateMutability": "payable",
      "type": "function"
    }
  ],
  "bytecode": "0x608060405234801561001057600080fd5b506040516020806109fa83398101806040528101908080519060200190929190505050336000806101000a81548173ffffffffffffffffffffffffffffffffffffffff021916908373ffffffffffffffffffffffffffffffffffffffff1602179055506040805190810160405280600e81526020017f596f7527726520617765736f6d65000000000000000000000000000000000000815250600190805190602001906100be92919061015d565b506040805190810160405280600b81526020017f73656372657420646174610000000000000000000000000000000000000000008152506002908051906020019061010a92919061015d565b506040805190810160405280600d81526020017f696e697469616c207374617465000000000000000000000000000000000000008152506003908051906020019061015692919061015d565b5050610202565b828054600181600116156101000203166002900490600052602060002090601f016020900481019282601f1061019e57805160ff19168380011785556101cc565b828001600101855582156101cc579182015b828111156101cb5782518255916020019190600101906101b0565b5b5090506101d991906101dd565b5090565b6101ff91905b808211156101fb5760008160009055506001016101e3565b5090565b90565b6107e9806102116000396000f300608060405260043610610083576000357c0100000000000000000000000000000000000000000000000000000000900463ffffffff168063170946c7146100885780631865c57d146100aa57806341c0e1b51461013a57806349fad5dd146101515780635b9fdc301461018057806368794b8714610210578063e1f580841461026c575b600080fd5b6100906102fc565b604051808215151515815260200191505060405180910390f35b3480156100b657600080fd5b506100bf610474565b6040518080602001828103825283818151815260200191508051906020019080838360005b838110156100ff5780820151818401526020810190506100e4565b50505050905090810190601f16801561012c5780820380516001836020036101000a031916815260200191505b509250505060405180910390f35b34801561014657600080fd5b5061014f610516565b005b34801561015d57600080fd5b506101666105ab565b604051808215151515815260200191505060405180910390f35b34801561018c57600080fd5b506101956105be565b6040518080602001828103825283818151815260200191508051906020019080838360005b838110156101d55780820151818401526020810190506101ba565b50505050905090810190601f1680156102025780820380516001836020036101000a031916815260200191505b509250505060405180910390f35b61026a600480360381019080803590602001908201803590602001908080601f0160208091040260200160405190810160405280939291908181526020018383808284378201915050505050509192919290505050610660565b005b34801561027857600080fd5b5061028161067a565b6040518080602001828103825283818151815260200191508051906020019080838360005b838110156102c15780820151818401526020810190506102a6565b50505050905090810190601f1680156102ee5780820380516001836020036101000a031916815260200191505b509250505060405180910390f35b6000803360003634604051602001808573ffffffffffffffffffffffffffffffffffffffff1673ffffffffffffffffffffffffffffffffffffffff166c0100000000000000000000000002815260140184848082843782019150508281526020019450505050506040516020818303038152906040526040518082805190602001908083835b6020831015156103a75780518252602082019150602081019050602083039250610382565b6001836020036101000a03801982511681845116808217855250505050505090500191505060405180910390209050600a600102600019168160001916111561040a576001600460006101000a81548160ff021916908315150217905550610426565b6000600460006101000a81548160ff0219169083151502179055505b7febfaed7fb7b0aa2190100184364eeaa3c730502de5f7702e86e6644f5a06e7f0600460009054906101000a900460ff16604051808215151515815260200191505060405180910390a15090565b606060038054600181600116156101000203166002900480601f01602080910402602001604051908101604052809291908181526020018280546001816001161561010002031660029004801561050c5780601f106104e15761010080835404028352916020019161050c565b820191906000526020600020905b8154815290600101906020018083116104ef57829003601f168201915b5050505050905090565b6000809054906101000a900473ffffffffffffffffffffffffffffffffffffffff1673ffffffffffffffffffffffffffffffffffffffff163373ffffffffffffffffffffffffffffffffffffffff1614151561057157600080fd5b6000809054906101000a900473ffffffffffffffffffffffffffffffffffffffff1673ffffffffffffffffffffffffffffffffffffffff16ff5b600460009054906101000a900460ff1681565b606060028054600181600116156101000203166002900480601f0160208091040260200160405190810160405280929190818152602001828054600181600116156101000203166002900480156106565780601f1061062b57610100808354040283529160200191610656565b820191906000526020600020905b81548152906001019060200180831161063957829003601f168201915b5050505050905090565b8060039080519060200190610676929190610718565b5050565b60018054600181600116156101000203166002900480601f0160208091040260200160405190810160405280929190818152602001828054600181600116156101000203166002900480156107105780601f106106e557610100808354040283529160200191610710565b820191906000526020600020905b8154815290600101906020018083116106f357829003601f168201915b505050505081565b828054600181600116156101000203166002900490600052602060002090601f016020900481019282601f1061075957805160ff1916838001178555610787565b82800160010185558215610787579182015b8281111561078657825182559160200191906001019061076b565b5b5090506107949190610798565b5090565b6107ba91905b808211156107b657600081600090555060010161079e565b5090565b905600a165627a7a7230582015822702344e0e0f7f7637390755049ed4e1a70a91343ab00f42436666cfbc3a0029",
  "source": "pragma solidity ^0.4.11;\n\ncontract ReactExample {\n    address private owner;\n    string public you_awesome;\n    string private secret;\n    string private state;\n    bool public pseudoRandomResult;\n    event ExperimentComplete (bool result);\n\n    constructor(ReactExample) public {\n        owner = msg.sender;\n        you_awesome = \"You're awesome\";\n        secret = \"secret data\";\n        state = \"initial state\";\n    }\n    function getSecret () public view returns (string) {\n        return secret;\n    }\n    function kill () public {\n        require (msg.sender == owner);\n        selfdestruct (owner);\n    }\n    function getState () public view returns (string) {\n        return state;\n    }\n    function setState (string newState) public payable {\n        state = newState;\n    }\n    function () public payable {\n        revert ();\n    }\n    function setExperimentInMotion () public payable returns (bool) {\n        bytes32 _pseudoRandomResult = keccak256(abi.encodePacked(msg.sender, msg.data, msg.value));\n        if (_pseudoRandomResult > bytes32(10)) pseudoRandomResult = true;\n        else pseudoRandomResult = false;\n\n        emit ExperimentComplete (pseudoRandomResult);\n    }\n}\n",
  "sourcePath": "/Users/mateo/Projects/blockchain course/React_Ethereum_Tutorial/truffle_react/contracts/ReactExample.sol",
  "compiler": {
    "name": "solc",
    "version": "0.4.24+commit.e67f0147.Emscripten.clang"
  },
  "schemaVersion": "2.0.1",
  "updatedAt": "2018-07-29T22:22:36.885Z"
}